:100000000C942A000C943F000C943F000C943F0089
:100010000C943F000C943F000C943F000C943F0064
:100020000C943F000C943F000C943F000C943F0054
:100030000C943F000C943F000C943F000C943F0044
:100040000C943F000C943F000C943F000C943F0034
:100050000C943F0011241FBECFE5D8E0DEBFCDBF1A
:1000600010E0A0E6B0E0EAECF3E002C005900D92EB
:10007000A237B107D9F70E9441000C94E3010C9418
:1000800000000E945600FFCF81B38C6C81BB0895A5
:10009000CF93C82F462F60E081E00E949D004C2F37
:1000A00061E081E00E949D00CF910895CF93DF939E
:1000B000CDB7DEB761970FB6F894DEBF0FBECDBFE8
:1000C00081E1E0E6F0E0DE01119601900D928A9563
:1000D000E1F7CE0101960E94F9000E94440060E021
:1000E00080E00E94480082B3837382BB61960FB6A2
:1000F000F894DEBF0FBECDBFDF91CF910895813060
:1001000061F018F0823089F0089583B7887F83BF4B
:1001100083B76770682B63BF08958EB5887F8EBDE7
:100120008EB56770682B6EBD089585B5887F85BDD7
:1001300085B56770682B65BD0895813031F018F082
:10014000823069F008954CBF0895611104C050E0F9
:100150005BBD4ABD089550E059BD48BD089543BDFB
:1001600008958130B9F018F0823081F10895662346
:1001700021F089B7816089BF03C089B78E7F89BFAD
:10018000442321F089B7826089BF089589B78D7FA4
:1001900089BF0895662321F089B7846089BF03C0B1
:1001A00089B78B7F89BF442321F089B7806189BFDC
:1001B00003C089B78F7E89BF222321F089B7886069
:1001C00089BF089589B7877F89BF0895662321F085
:1001D00089B7806489BF03C089B78F7B89BF4423F7
:1001E00021F089B7806889BF089589B78F7789BF63
:1001F0000895CF93DF93009709F4E2C0EC01888162
:10020000813009F441C020F0823009F49EC0D8C08A
:10021000998183B7877B83BF923029F0933039F07F
:10022000913061F408C083B7886083BF07C083B78B
:10023000886483BF03C083B7806483BF88898823B1
:1002400031F08B81882319F087B3886087BB9B814D
:1002500083B78F7C83BF91FF03C083B7806283BF66
:1002600090FF03C083B7806183BF8D8182BF8F8180
:100270008CBF20E04E856D8580E00E94B1006A81D0
:1002800080E00E947F009CC099818FB58C7F8FBDDC
:100290008EB5877E8EBD923029F0933039F0913043
:1002A00079F40BC08EB588608EBD0AC08EB58860AB
:1002B0008EBD8FB581608FBD03C08FB581608FBD4E
:1002C0008889882331F08B81882319F081B380627B
:1002D00081BB8889882331F08C81882319F081B310
:1002E000806181BB9B818FB58F738FBD91FF03C0F0
:1002F0008FB580688FBD90FF03C08FB580648FBDC0
:100300009C818FB58F7C8FBD91FF03C08FB58062BC
:100310008FBD90FF03C08FB580618FBD8D819E81A1
:100320009DBD8CBD8F8198859BBD8ABD89859A8531
:1003300099BD88BD2F854E856D8581E00E94B100F5
:100340006A8181E00E947F003BC0998185B5877BEF
:1003500085BD923029F0933039F0913061F408C0B6
:1003600085B5886085BD07C085B5886485BD03C037
:1003700085B5806485BD8889882331F08B81882389
:1003800019F081B3806881BB9B8185B58F7C85BD69
:1003900091FF03C085B5806285BD90FF03C085B520
:1003A000806185BD8D8184BD8F8183BD20E04E85B8
:1003B0006D8582E00E94B1006A8182E00E947F0028
:0A03C000DF91CF910895F894FFCF6C
:1003CA000103020202000000000000000000000019
:0203DA00010020
:00000001FF
